{
  "contractName": "SavingSacco",
  "abi": [
    {
      "anonymous": false,
      "inputs": [
        {
          "indexed": true,
          "internalType": "address",
          "name": "previousOwner",
          "type": "address"
        },
        {
          "indexed": true,
          "internalType": "address",
          "name": "newOwner",
          "type": "address"
        }
      ],
      "name": "OwnershipTransferred",
      "type": "event"
    },
    {
      "inputs": [],
      "name": "owner",
      "outputs": [
        {
          "internalType": "address",
          "name": "",
          "type": "address"
        }
      ],
      "stateMutability": "view",
      "type": "function",
      "constant": true
    },
    {
      "inputs": [],
      "name": "renounceOwnership",
      "outputs": [],
      "stateMutability": "nonpayable",
      "type": "function"
    },
    {
      "inputs": [
        {
          "internalType": "address",
          "name": "newOwner",
          "type": "address"
        }
      ],
      "name": "transferOwnership",
      "outputs": [],
      "stateMutability": "nonpayable",
      "type": "function"
    },
    {
      "inputs": [],
      "name": "initialize",
      "outputs": [],
      "stateMutability": "nonpayable",
      "type": "function"
    },
    {
      "inputs": [
        {
          "internalType": "bytes32",
          "name": "hashedName",
          "type": "bytes32"
        }
      ],
      "name": "circleMembers",
      "outputs": [
        {
          "internalType": "address[]",
          "name": "",
          "type": "address[]"
        }
      ],
      "stateMutability": "view",
      "type": "function",
      "constant": true
    },
    {
      "inputs": [
        {
          "internalType": "address",
          "name": "user",
          "type": "address"
        }
      ],
      "name": "circlesFor",
      "outputs": [
        {
          "internalType": "bytes32[]",
          "name": "",
          "type": "bytes32[]"
        }
      ],
      "stateMutability": "view",
      "type": "function",
      "constant": true
    },
    {
      "inputs": [
        {
          "internalType": "bytes32",
          "name": "hashedName",
          "type": "bytes32"
        }
      ],
      "name": "circleInfo",
      "outputs": [
        {
          "internalType": "string",
          "name": "",
          "type": "string"
        },
        {
          "internalType": "address[]",
          "name": "",
          "type": "address[]"
        },
        {
          "internalType": "address",
          "name": "",
          "type": "address"
        },
        {
          "internalType": "uint256",
          "name": "",
          "type": "uint256"
        },
        {
          "internalType": "uint256",
          "name": "",
          "type": "uint256"
        },
        {
          "internalType": "uint256",
          "name": "",
          "type": "uint256"
        }
      ],
      "stateMutability": "view",
      "type": "function",
      "constant": true
    },
    {
      "inputs": [
        {
          "internalType": "string",
          "name": "name",
          "type": "string"
        },
        {
          "internalType": "address[]",
          "name": "members",
          "type": "address[]"
        },
        {
          "internalType": "address",
          "name": "tokenAddress",
          "type": "address"
        },
        {
          "internalType": "uint256",
          "name": "depositAmount",
          "type": "uint256"
        }
      ],
      "name": "addCircle",
      "outputs": [],
      "stateMutability": "nonpayable",
      "type": "function"
    },
    {
      "inputs": [
        {
          "internalType": "bytes32",
          "name": "hashedName",
          "type": "bytes32"
        }
      ],
      "name": "balancesForCircle",
      "outputs": [
        {
          "internalType": "address[]",
          "name": "",
          "type": "address[]"
        },
        {
          "internalType": "uint256[]",
          "name": "",
          "type": "uint256[]"
        }
      ],
      "stateMutability": "view",
      "type": "function",
      "constant": true
    },
    {
      "inputs": [
        {
          "internalType": "bytes32",
          "name": "hashedName",
          "type": "bytes32"
        },
        {
          "internalType": "uint256",
          "name": "value",
          "type": "uint256"
        }
      ],
      "name": "contribute",
      "outputs": [],
      "stateMutability": "payable",
      "type": "function",
      "payable": true
    },
    {
      "inputs": [
        {
          "internalType": "bytes32",
          "name": "hashedName",
          "type": "bytes32"
        }
      ],
      "name": "withdrawable",
      "outputs": [
        {
          "internalType": "bool",
          "name": "",
          "type": "bool"
        }
      ],
      "stateMutability": "view",
      "type": "function",
      "constant": true
    },
    {
      "inputs": [
        {
          "internalType": "bytes32",
          "name": "hashedName",
          "type": "bytes32"
        }
      ],
      "name": "withdraw",
      "outputs": [],
      "stateMutability": "nonpayable",
      "type": "function"
    }
  ],
  "bytecode": "0x608060405234801561001057600080fd5b50600160008190555060006100296100cd60201b60201c565b905080600160006101000a81548173ffffffffffffffffffffffffffffffffffffffff021916908373ffffffffffffffffffffffffffffffffffffffff1602179055508073ffffffffffffffffffffffffffffffffffffffff16600073ffffffffffffffffffffffffffffffffffffffff167f8be0079c531659141344cd1fd0a4f28419497f9722a3daafe3b4186f6b6457e060405160405180910390a3506100d5565b600033905090565b612092806100e46000396000f3fe6080604052600436106100a75760003560e01c8063a2b006f711610064578063a2b006f71461027f578063b953964214610325578063c34bab1f1461035d578063f1370c51146103ed578063f2fde38b146104f2578063fed72cdf14610543576100a7565b8063206c08dc146100ac578063715018a6146101845780637cf43d8c1461019b5780638129fc1c146101ec5780638da5cb5b146102035780638e19899e14610244575b600080fd5b3480156100b857600080fd5b506100e5600480360360208110156100cf57600080fd5b8101908080359060200190929190505050610671565b604051808060200180602001838103835285818151815260200191508051906020019060200280838360005b8381101561012c578082015181840152602081019050610111565b50505050905001838103825284818151815260200191508051906020019060200280838360005b8381101561016e578082015181840152602081019050610153565b5050505090500194505050505060405180910390f35b34801561019057600080fd5b506101996108a6565b005b3480156101a757600080fd5b506101d4600480360360208110156101be57600080fd5b8101908080359060200190929190505050610a31565b60405180821515815260200191505060405180910390f35b3480156101f857600080fd5b50610201610b93565b005b34801561020f57600080fd5b50610218610c9d565b604051808273ffffffffffffffffffffffffffffffffffffffff16815260200191505060405180910390f35b34801561025057600080fd5b5061027d6004803603602081101561026757600080fd5b8101908080359060200190929190505050610cc7565b005b34801561028b57600080fd5b506102ce600480360360208110156102a257600080fd5b81019080803573ffffffffffffffffffffffffffffffffffffffff1690602001909291905050506111a8565b6040518080602001828103825283818151815260200191508051906020019060200280838360005b838110156103115780820151818401526020810190506102f6565b505050509050019250505060405180910390f35b61035b6004803603604081101561033b57600080fd5b81019080803590602001909291908035906020019092919050505061123f565b005b34801561036957600080fd5b506103966004803603602081101561038057600080fd5b81019080803590602001909291905050506114d2565b6040518080602001828103825283818151815260200191508051906020019060200280838360005b838110156103d95780820151818401526020810190506103be565b505050509050019250505060405180910390f35b3480156103f957600080fd5b506104f06004803603608081101561041057600080fd5b810190808035906020019064010000000081111561042d57600080fd5b82018360208201111561043f57600080fd5b8035906020019184600183028401116401000000008311171561046157600080fd5b90919293919293908035906020019064010000000081111561048257600080fd5b82018360208201111561049457600080fd5b803590602001918460208302840111640100000000831117156104b657600080fd5b9091929391929390803573ffffffffffffffffffffffffffffffffffffffff16906020019092919080359060200190929190505050611576565b005b3480156104fe57600080fd5b506105416004803603602081101561051557600080fd5b81019080803573ffffffffffffffffffffffffffffffffffffffff1690602001909291905050506117b4565b005b34801561054f57600080fd5b5061057c6004803603602081101561056657600080fd5b81019080803590602001909291905050506119c4565b6040518080602001806020018773ffffffffffffffffffffffffffffffffffffffff168152602001868152602001858152602001848152602001838103835289818151815260200191508051906020019080838360005b838110156105ee5780820151818401526020810190506105d3565b50505050905090810190601f16801561061b5780820380516001836020036101000a031916815260200191505b50838103825288818151815260200191508051906020019060200280838360005b8381101561065757808201518184015260208101905061063c565b505050509050019850505050505050505060405180910390f35b6060806000600260008581526020019081526020016000209050600081600201805490501415610709576040517f08c379a00000000000000000000000000000000000000000000000000000000081526004018080602001828103825260158152602001807f436972636c6520646f6573206e6f74206578697374000000000000000000000081525060200191505060405180910390fd5b6060816002018054905067ffffffffffffffff8111801561072957600080fd5b506040519080825280602002602001820160405280156107585781602001602082028036833780820191505090505b50905060005b826002018054905081101561080d5782600701600084600201838154811061078257fe5b9060005260206000200160009054906101000a900473ffffffffffffffffffffffffffffffffffffffff1673ffffffffffffffffffffffffffffffffffffffff1673ffffffffffffffffffffffffffffffffffffffff168152602001908152602001600020548282815181106107f457fe5b602002602001018181525050808060010191505061075e565b5081600201818180548060200260200160405190810160405280929190818152602001828054801561089457602002820191906000526020600020905b8160009054906101000a900473ffffffffffffffffffffffffffffffffffffffff1673ffffffffffffffffffffffffffffffffffffffff168152602001906001019080831161084a575b50505050509150935093505050915091565b6108ae611b5a565b73ffffffffffffffffffffffffffffffffffffffff16600160009054906101000a900473ffffffffffffffffffffffffffffffffffffffff1673ffffffffffffffffffffffffffffffffffffffff1614610970576040517f08c379a00000000000000000000000000000000000000000000000000000000081526004018080602001828103825260208152602001807f4f776e61626c653a2063616c6c6572206973206e6f7420746865206f776e657281525060200191505060405180910390fd5b600073ffffffffffffffffffffffffffffffffffffffff16600160009054906101000a900473ffffffffffffffffffffffffffffffffffffffff1673ffffffffffffffffffffffffffffffffffffffff167f8be0079c531659141344cd1fd0a4f28419497f9722a3daafe3b4186f6b6457e060405160405180910390a36000600160006101000a81548173ffffffffffffffffffffffffffffffffffffffff021916908373ffffffffffffffffffffffffffffffffffffffff160217905550565b600080600260008481526020019081526020016000209050600081600201805490501415610ac7576040517f08c379a00000000000000000000000000000000000000000000000000000000081526004018080602001828103825260158152602001807f436972636c6520646f6573206e6f74206578697374000000000000000000000081525060200191505060405180910390fd5b60005b8160020180549050811015610b87578160040154826007016000846002018481548110610af357fe5b9060005260206000200160009054906101000a900473ffffffffffffffffffffffffffffffffffffffff1673ffffffffffffffffffffffffffffffffffffffff1673ffffffffffffffffffffffffffffffffffffffff16815260200190815260200160002054108015610b6a575080826003015414155b15610b7a57600092505050610b8e565b8080600101915050610aca565b5060019150505b919050565b600160159054906101000a900460ff1680610bb25750610bb1611b62565b5b80610bca5750600160149054906101000a900460ff16155b610c1f576040517f08c379a000000000000000000000000000000000000000000000000000000000815260040180806020018281038252602e81526020018061200e602e913960400191505060405180910390fd5b6000600160159054906101000a900460ff161590508015610c6f5760018060156101000a81548160ff02191690831515021790555060018060146101000a81548160ff0219169083151502179055505b610c78336117b4565b8015610c9a576000600160156101000a81548160ff0219169083151502179055505b50565b6000600160009054906101000a900473ffffffffffffffffffffffffffffffffffffffff16905090565b6000600260008381526020019081526020016000209050600081600201805490501415610d5c576040517f08c379a00000000000000000000000000000000000000000000000000000000081526004018080602001828103825260158152602001807f436972636c6520646f6573206e6f74206578697374000000000000000000000081525060200191505060405180910390fd5b610d6582610a31565b610dd7576040517f08c379a000000000000000000000000000000000000000000000000000000000815260040180806020018281038252601a8152602001807f436972636c65206973206e6f7420776974686472617761626c6500000000000081525060200191505060405180910390fd5b3373ffffffffffffffffffffffffffffffffffffffff1681600201826003015481548110610e0157fe5b9060005260206000200160009054906101000a900473ffffffffffffffffffffffffffffffffffffffff1673ffffffffffffffffffffffffffffffffffffffff1614610eb5576040517f08c379a00000000000000000000000000000000000000000000000000000000081526004018080602001828103825260118152602001807f49742773206e6f74206f7572207475726e00000000000000000000000000000081525060200191505060405180910390fd5b8060050160009054906101000a900473ffffffffffffffffffffffffffffffffffffffff1673ffffffffffffffffffffffffffffffffffffffff1663a9059cbb33610f27610f1460018660020180549050611b7990919063ffffffff16565b8560040154611bc390919063ffffffff16565b6040518363ffffffff1660e01b8152600401808373ffffffffffffffffffffffffffffffffffffffff16815260200182815260200192505050602060405180830381600087803b158015610f7a57600080fd5b505af1158015610f8e573d6000803e3d6000fd5b505050506040513d6020811015610fa457600080fd5b8101908080519060200190929190505050611027576040517f08c379a000000000000000000000000000000000000000000000000000000000815260040180806020018281038252601d8152602001807f5472616e73666572206f66207769746864726177616c206661696c656400000081525060200191505060405180910390fd5b60005b81600201805490508110156111615780826003015414611154576110d5826004015483600701600085600201858154811061106157fe5b9060005260206000200160009054906101000a900473ffffffffffffffffffffffffffffffffffffffff1673ffffffffffffffffffffffffffffffffffffffff1673ffffffffffffffffffffffffffffffffffffffff16815260200190815260200160002054611b7990919063ffffffff16565b8260070160008460020184815481106110ea57fe5b9060005260206000200160009054906101000a900473ffffffffffffffffffffffffffffffffffffffff1673ffffffffffffffffffffffffffffffffffffffff1673ffffffffffffffffffffffffffffffffffffffff168152602001908152602001600020819055505b808060010191505061102a565b50611193816002018054905061118560018460030154611c4990919063ffffffff16565b611cd190919063ffffffff16565b81600301819055504281600601819055505050565b6060600360008373ffffffffffffffffffffffffffffffffffffffff1673ffffffffffffffffffffffffffffffffffffffff16815260200190815260200160002080548060200260200160405190810160405280929190818152602001828054801561123357602002820191906000526020600020905b81548152602001906001019080831161121f575b50505050509050919050565b60006002600084815260200190815260200160002090506000816002018054905014156112d4576040517f08c379a00000000000000000000000000000000000000000000000000000000081526004018080602001828103825260158152602001807f436972636c6520646f6573206e6f74206578697374000000000000000000000081525060200191505060405180910390fd5b8060050160009054906101000a900473ffffffffffffffffffffffffffffffffffffffff1673ffffffffffffffffffffffffffffffffffffffff166323b872dd3330856040518463ffffffff1660e01b8152600401808473ffffffffffffffffffffffffffffffffffffffff1681526020018373ffffffffffffffffffffffffffffffffffffffff1681526020018281526020019350505050602060405180830381600087803b15801561138757600080fd5b505af115801561139b573d6000803e3d6000fd5b505050506040513d60208110156113b157600080fd5b8101908080519060200190929190505050611434576040517f08c379a000000000000000000000000000000000000000000000000000000000815260040180806020018281038252601f8152602001807f5472616e73666572206f6620636f6e747269627574696f6e206661696c65640081525060200191505060405180910390fd5b611488828260070160003373ffffffffffffffffffffffffffffffffffffffff1673ffffffffffffffffffffffffffffffffffffffff16815260200190815260200160002054611c4990919063ffffffff16565b8160070160003373ffffffffffffffffffffffffffffffffffffffff1673ffffffffffffffffffffffffffffffffffffffff16815260200190815260200160002081905550505050565b60606002600083815260200190815260200160002060020180548060200260200160405190810160405280929190818152602001828054801561156a57602002820191906000526020600020905b8160009054906101000a900473ffffffffffffffffffffffffffffffffffffffff1673ffffffffffffffffffffffffffffffffffffffff1681526020019060010190808311611520575b50505050509050919050565b6000868660405160200180838380828437808301925050509250505060405160208183030381529060405280519060200120905060006115b5826114d2565b5114611629576040517f08c379a00000000000000000000000000000000000000000000000000000000081526004018080602001828103825260148152602001807f416c726561647920616464656420636972636c6500000000000000000000000081525060200191505060405180910390fd5b6000600260008381526020019081526020016000209050338160000160006101000a81548173ffffffffffffffffffffffffffffffffffffffff021916908373ffffffffffffffffffffffffffffffffffffffff1602179055508585826002019190611696929190611e9c565b50838160050160006101000a81548173ffffffffffffffffffffffffffffffffffffffff021916908373ffffffffffffffffffffffffffffffffffffffff16021790555082816004018190555087878260010191906116f6929190611f3c565b5042816006018190555060005b868690508110156117a9576003600088888481811061171e57fe5b9050602002013573ffffffffffffffffffffffffffffffffffffffff1673ffffffffffffffffffffffffffffffffffffffff1673ffffffffffffffffffffffffffffffffffffffff1681526020019081526020016000208390806001815401808255809150506001900390600052602060002001600090919091909150558080600101915050611703565b505050505050505050565b6117bc611b5a565b73ffffffffffffffffffffffffffffffffffffffff16600160009054906101000a900473ffffffffffffffffffffffffffffffffffffffff1673ffffffffffffffffffffffffffffffffffffffff161461187e576040517f08c379a00000000000000000000000000000000000000000000000000000000081526004018080602001828103825260208152602001807f4f776e61626c653a2063616c6c6572206973206e6f7420746865206f776e657281525060200191505060405180910390fd5b600073ffffffffffffffffffffffffffffffffffffffff168173ffffffffffffffffffffffffffffffffffffffff161415611904576040517f08c379a0000000000000000000000000000000000000000000000000000000008152600401808060200182810382526026815260200180611fe86026913960400191505060405180910390fd5b8073ffffffffffffffffffffffffffffffffffffffff16600160009054906101000a900473ffffffffffffffffffffffffffffffffffffffff1673ffffffffffffffffffffffffffffffffffffffff167f8be0079c531659141344cd1fd0a4f28419497f9722a3daafe3b4186f6b6457e060405160405180910390a380600160006101000a81548173ffffffffffffffffffffffffffffffffffffffff021916908373ffffffffffffffffffffffffffffffffffffffff16021790555050565b606080600080600080600060026000898152602001908152602001600020905080600101816002018260050160009054906101000a900473ffffffffffffffffffffffffffffffffffffffff16836004015484600601548560030154858054600181600116156101000203166002900480601f016020809104026020016040519081016040528092919081815260200182805460018160011615610100020316600290048015611ab55780601f10611a8a57610100808354040283529160200191611ab5565b820191906000526020600020905b815481529060010190602001808311611a9857829003601f168201915b5050505050955084805480602002602001604051908101604052809291908181526020018280548015611b3d57602002820191906000526020600020905b8160009054906101000a900473ffffffffffffffffffffffffffffffffffffffff1673ffffffffffffffffffffffffffffffffffffffff1681526020019060010190808311611af3575b505050505094509650965096509650965096505091939550919395565b600033905090565b6000803090506000813b9050600081149250505090565b6000611bbb83836040518060400160405280601e81526020017f536166654d6174683a207375627472616374696f6e206f766572666c6f770000815250611d1b565b905092915050565b600080831415611bd65760009050611c43565b6000828402905082848281611be757fe5b0414611c3e576040517f08c379a000000000000000000000000000000000000000000000000000000000815260040180806020018281038252602181526020018061203c6021913960400191505060405180910390fd5b809150505b92915050565b600080828401905083811015611cc7576040517f08c379a000000000000000000000000000000000000000000000000000000000815260040180806020018281038252601b8152602001807f536166654d6174683a206164646974696f6e206f766572666c6f77000000000081525060200191505060405180910390fd5b8091505092915050565b6000611d1383836040518060400160405280601881526020017f536166654d6174683a206d6f64756c6f206279207a65726f0000000000000000815250611ddb565b905092915050565b6000838311158290611dc8576040517f08c379a00000000000000000000000000000000000000000000000000000000081526004018080602001828103825283818151815260200191508051906020019080838360005b83811015611d8d578082015181840152602081019050611d72565b50505050905090810190601f168015611dba5780820380516001836020036101000a031916815260200191505b509250505060405180910390fd5b5060008385039050809150509392505050565b6000808314158290611e88576040517f08c379a00000000000000000000000000000000000000000000000000000000081526004018080602001828103825283818151815260200191508051906020019080838360005b83811015611e4d578082015181840152602081019050611e32565b50505050905090810190601f168015611e7a5780820380516001836020036101000a031916815260200191505b509250505060405180910390fd5b50828481611e9257fe5b0690509392505050565b828054828255906000526020600020908101928215611f2b579160200282015b82811115611f2a57823573ffffffffffffffffffffffffffffffffffffffff168260006101000a81548173ffffffffffffffffffffffffffffffffffffffff021916908373ffffffffffffffffffffffffffffffffffffffff16021790555091602001919060010190611ebc565b5b509050611f389190611fca565b5090565b828054600181600116156101000203166002900490600052602060002090601f016020900481019282611f725760008555611fb9565b82601f10611f8b57803560ff1916838001178555611fb9565b82800160010185558215611fb9579182015b82811115611fb8578235825591602001919060010190611f9d565b5b509050611fc69190611fca565b5090565b5b80821115611fe3576000816000905550600101611fcb565b509056fe4f776e61626c653a206e6577206f776e657220697320746865207a65726f2061646472657373496e697469616c697a61626c653a20636f6e747261637420697320616c726561647920696e697469616c697a6564536166654d6174683a206d756c7469706c69636174696f6e206f766572666c6f77a26469706673582212202ba7c06ca1a8bc9b40862b84362ebe0003b8a31671d0f22acba31237bf41d26b64736f6c63430007040033",
  "immutableReferences": {},
  "source": "// \"SPDX-License-Identifier: MIT\"\npragma solidity ^0.7.4;\n\nimport \"@openzeppelin/contracts/utils/ReentrancyGuard.sol\";\nimport \"@openzeppelin/contracts//math/SafeMath.sol\";\nimport \"@openzeppelin/contracts/access/Ownable.sol\";\nimport \"@openzeppelin/contracts/token/ERC20/IERC20.sol\";\nimport \"@openzeppelin/contracts/proxy/Initializable.sol\";\n\n// import \"./Initializable.sol\";\n// import \"./IERC20Token.sol\";\n\ncontract SavingSacco is ReentrancyGuard, Ownable, Initializable{\n  using SafeMath for uint256;\n\n  struct Circle {\n    address owner;\n    string name;\n    address[] members;\n    uint256 currentIndex;\n    uint256 depositAmount;\n    address tokenAddress;\n    uint256 timestamp;\n    mapping(address => uint256) balances;\n  }\n  mapping (bytes32 => Circle) circles;\n  mapping (address => bytes32[]) circleMemberships;\n\n  function initialize() external initializer {\n    transferOwnership(msg.sender);\n  }\n\n  function circleMembers(bytes32 hashedName) public view returns (address[] memory) {\n    return circles[hashedName].members;\n  }\n\n  function circlesFor(address user) public view returns (bytes32[] memory) {\n    return circleMemberships[user];\n  }\n\n  function circleInfo(bytes32 hashedName) public view returns (string memory, address[] memory, address, uint256, uint256, uint256) {\n    Circle storage circle = circles[hashedName];\n    return (circle.name, circle.members, circle.tokenAddress, circle.depositAmount, circle.timestamp, circle.currentIndex);\n  }\n\n  function addCircle(string calldata name, address[] calldata members, address tokenAddress, uint256 depositAmount) external {\n    bytes32 hashedName = keccak256(abi.encodePacked(name));\n\n    require(circleMembers(hashedName).length == 0, \"Already added circle\");\n\n    Circle storage circle = circles[hashedName];\n\n    circle.owner = msg.sender;\n    circle.members = members;\n    circle.tokenAddress = tokenAddress;\n    circle.depositAmount = depositAmount;\n    circle.name = name;\n    // solhint-disable-next-line not-rely-on-time\n    circle.timestamp = block.timestamp;\n\n    for (uint256 index = 0; index < members.length; index++) {\n      circleMemberships[members[index]].push(hashedName);\n    }\n  }\n\n  function balancesForCircle(bytes32 hashedName) external view returns (address[] memory, uint256[] memory) {\n    Circle storage circle = circles[hashedName];\n\n    require(circle.members.length != 0, \"Circle does not exist\");\n\n    uint256[] memory balances = new uint256[](circle.members.length);\n\n    for (uint256 index = 0; index < circle.members.length; index++) {\n      balances[index] = circle.balances[circle.members[index]];\n    }\n\n    return (circle.members, balances);\n  }\n\n\n  function contribute(bytes32 hashedName, uint256 value) external payable{\n    Circle storage circle = circles[hashedName];\n\n    require(circle.members.length != 0, \"Circle does not exist\");\n\n    require(\n      IERC20(circle.tokenAddress).transferFrom(\n        msg.sender,\n        address(this),\n        value\n      ),\n      \"Transfer of contribution failed\"\n    );\n\n    circle.balances[msg.sender] = circle.balances[msg.sender].add(value);\n  }\n\n  function withdrawable(bytes32 hashedName) public view returns (bool) {\n    Circle storage circle = circles[hashedName];\n\n    require(circle.members.length != 0, \"Circle does not exist\");\n\n    for (uint256 index = 0; index < circle.members.length; index++) {\n      if (circle.balances[circle.members[index]] < circle.depositAmount && circle.currentIndex != index) {\n        return false;\n      }\n    }\n\n    return true;\n  }\n\n  function withdraw(bytes32 hashedName) external {\n    Circle storage circle = circles[hashedName];\n\n    require(circle.members.length != 0, \"Circle does not exist\");\n\n    require(withdrawable(hashedName), \"Circle is not withdrawable\");\n\n    require(circle.members[circle.currentIndex] == msg.sender, \"It's not our turn\");\n\n    require(\n      IERC20(circle.tokenAddress).transfer(\n        msg.sender,\n        circle.depositAmount.mul(circle.members.length.sub(1))\n      ),\n      \"Transfer of withdrawal failed\"\n    );\n\n    for (uint256 index = 0; index < circle.members.length; index++) {\n      if (circle.currentIndex != index) {\n        circle.balances[circle.members[index]] = circle.balances[circle.members[index]].sub(circle.depositAmount);\n      }\n    }\n\n    circle.currentIndex = circle.currentIndex.add(1).mod(circle.members.length);\n    // solhint-disable-next-line not-rely-on-time\n    circle.timestamp = block.timestamp;\n  }\n}\n",
  "sourcePath": "/Users/mac/Documents/Code/apps/solidity/defi/savingsacco/kotanipay/contracts/SavingSacco.sol",
  "compiler": {
    "name": "solc",
    "version": "0.7.4+commit.3f05b770.Emscripten.clang"
  },
  "schemaVersion": "3.3.2",
  "updatedAt": "2020-12-10T08:42:30.176Z",
  "networkType": "ethereum",
  "devdoc": {
    "kind": "dev",
    "methods": {
      "owner()": {
        "details": "Returns the address of the current owner."
      },
      "renounceOwnership()": {
        "details": "Leaves the contract without owner. It will not be possible to call `onlyOwner` functions anymore. Can only be called by the current owner. NOTE: Renouncing ownership will leave the contract without an owner, thereby removing any functionality that is only available to the owner."
      },
      "transferOwnership(address)": {
        "details": "Transfers ownership of the contract to a new account (`newOwner`). Can only be called by the current owner."
      }
    },
    "version": 1
  },
  "userdoc": {
    "kind": "user",
    "methods": {},
    "version": 1
  }
}