{
  "contractName": "SavingsCircle",
  "abi": [
    {
      "anonymous": false,
      "inputs": [
        {
          "indexed": true,
          "internalType": "address",
          "name": "previousOwner",
          "type": "address"
        },
        {
          "indexed": true,
          "internalType": "address",
          "name": "newOwner",
          "type": "address"
        }
      ],
      "name": "OwnershipTransferred",
      "type": "event"
    },
    {
      "inputs": [],
      "name": "owner",
      "outputs": [
        {
          "internalType": "address",
          "name": "",
          "type": "address"
        }
      ],
      "stateMutability": "view",
      "type": "function"
    },
    {
      "inputs": [],
      "name": "renounceOwnership",
      "outputs": [],
      "stateMutability": "nonpayable",
      "type": "function"
    },
    {
      "inputs": [
        {
          "internalType": "address",
          "name": "newOwner",
          "type": "address"
        }
      ],
      "name": "transferOwnership",
      "outputs": [],
      "stateMutability": "nonpayable",
      "type": "function"
    },
    {
      "inputs": [],
      "name": "initialize",
      "outputs": [],
      "stateMutability": "nonpayable",
      "type": "function"
    },
    {
      "inputs": [
        {
          "internalType": "bytes32",
          "name": "hashedName",
          "type": "bytes32"
        }
      ],
      "name": "circleMembers",
      "outputs": [
        {
          "internalType": "address[]",
          "name": "",
          "type": "address[]"
        }
      ],
      "stateMutability": "view",
      "type": "function"
    },
    {
      "inputs": [
        {
          "internalType": "address",
          "name": "user",
          "type": "address"
        }
      ],
      "name": "circlesFor",
      "outputs": [
        {
          "internalType": "bytes32[]",
          "name": "",
          "type": "bytes32[]"
        }
      ],
      "stateMutability": "view",
      "type": "function"
    },
    {
      "inputs": [
        {
          "internalType": "bytes32",
          "name": "hashedName",
          "type": "bytes32"
        }
      ],
      "name": "circleInfo",
      "outputs": [
        {
          "internalType": "string",
          "name": "",
          "type": "string"
        },
        {
          "internalType": "address[]",
          "name": "",
          "type": "address[]"
        },
        {
          "internalType": "address",
          "name": "",
          "type": "address"
        },
        {
          "internalType": "uint256",
          "name": "",
          "type": "uint256"
        },
        {
          "internalType": "uint256",
          "name": "",
          "type": "uint256"
        },
        {
          "internalType": "uint256",
          "name": "",
          "type": "uint256"
        }
      ],
      "stateMutability": "view",
      "type": "function"
    },
    {
      "inputs": [
        {
          "internalType": "string",
          "name": "name",
          "type": "string"
        },
        {
          "internalType": "address[]",
          "name": "members",
          "type": "address[]"
        },
        {
          "internalType": "address",
          "name": "tokenAddress",
          "type": "address"
        },
        {
          "internalType": "uint256",
          "name": "depositAmount",
          "type": "uint256"
        }
      ],
      "name": "addCircle",
      "outputs": [],
      "stateMutability": "nonpayable",
      "type": "function"
    },
    {
      "inputs": [
        {
          "internalType": "bytes32",
          "name": "hashedName",
          "type": "bytes32"
        }
      ],
      "name": "balancesForCircle",
      "outputs": [
        {
          "internalType": "address[]",
          "name": "",
          "type": "address[]"
        },
        {
          "internalType": "uint256[]",
          "name": "",
          "type": "uint256[]"
        }
      ],
      "stateMutability": "view",
      "type": "function"
    },
    {
      "inputs": [
        {
          "internalType": "bytes32",
          "name": "hashedName",
          "type": "bytes32"
        },
        {
          "internalType": "uint256",
          "name": "value",
          "type": "uint256"
        }
      ],
      "name": "contribute",
      "outputs": [],
      "stateMutability": "nonpayable",
      "type": "function"
    },
    {
      "inputs": [
        {
          "internalType": "bytes32",
          "name": "hashedName",
          "type": "bytes32"
        }
      ],
      "name": "withdrawable",
      "outputs": [
        {
          "internalType": "bool",
          "name": "",
          "type": "bool"
        }
      ],
      "stateMutability": "view",
      "type": "function"
    },
    {
      "inputs": [
        {
          "internalType": "bytes32",
          "name": "hashedName",
          "type": "bytes32"
        }
      ],
      "name": "withdraw",
      "outputs": [],
      "stateMutability": "nonpayable",
      "type": "function"
    }
  ],
  "bytecode": "0x608060405234801561001057600080fd5b50600160008190555060006100296100cd60201b60201c565b905080600160006101000a81548173ffffffffffffffffffffffffffffffffffffffff021916908373ffffffffffffffffffffffffffffffffffffffff1602179055508073ffffffffffffffffffffffffffffffffffffffff16600073ffffffffffffffffffffffffffffffffffffffff167f8be0079c531659141344cd1fd0a4f28419497f9722a3daafe3b4186f6b6457e060405160405180910390a3506100d5565b600033905090565b612010806100e46000396000f3fe608060405234801561001057600080fd5b50600436106100b45760003560e01c8063a2b006f711610071578063a2b006f71461023e578063b9539642146102d7578063c34bab1f1461030f578063f1370c5114610392578063f2fde38b1461048a578063fed72cdf146104ce576100b4565b8063206c08dc146100b9578063715018a6146101845780637cf43d8c1461018e5780638129fc1c146101d25780638da5cb5b146101dc5780638e19899e14610210575b600080fd5b6100e5600480360360208110156100cf57600080fd5b81019080803590602001909291905050506105ef565b604051808060200180602001838103835285818151815260200191508051906020019060200280838360005b8381101561012c578082015181840152602081019050610111565b50505050905001838103825284818151815260200191508051906020019060200280838360005b8381101561016e578082015181840152602081019050610153565b5050505090500194505050505060405180910390f35b61018c610824565b005b6101ba600480360360208110156101a457600080fd5b81019080803590602001909291905050506109af565b60405180821515815260200191505060405180910390f35b6101da610b11565b005b6101e4610c1b565b604051808273ffffffffffffffffffffffffffffffffffffffff16815260200191505060405180910390f35b61023c6004803603602081101561022657600080fd5b8101908080359060200190929190505050610c45565b005b6102806004803603602081101561025457600080fd5b81019080803573ffffffffffffffffffffffffffffffffffffffff169060200190929190505050611126565b6040518080602001828103825283818151815260200191508051906020019060200280838360005b838110156102c35780820151818401526020810190506102a8565b505050509050019250505060405180910390f35b61030d600480360360408110156102ed57600080fd5b8101908080359060200190929190803590602001909291905050506111bd565b005b61033b6004803603602081101561032557600080fd5b8101908080359060200190929190505050611450565b6040518080602001828103825283818151815260200191508051906020019060200280838360005b8381101561037e578082015181840152602081019050610363565b505050509050019250505060405180910390f35b610488600480360360808110156103a857600080fd5b81019080803590602001906401000000008111156103c557600080fd5b8201836020820111156103d757600080fd5b803590602001918460018302840111640100000000831117156103f957600080fd5b90919293919293908035906020019064010000000081111561041a57600080fd5b82018360208201111561042c57600080fd5b8035906020019184602083028401116401000000008311171561044e57600080fd5b9091929391929390803573ffffffffffffffffffffffffffffffffffffffff169060200190929190803590602001909291905050506114f4565b005b6104cc600480360360208110156104a057600080fd5b81019080803573ffffffffffffffffffffffffffffffffffffffff169060200190929190505050611732565b005b6104fa600480360360208110156104e457600080fd5b8101908080359060200190929190505050611942565b6040518080602001806020018773ffffffffffffffffffffffffffffffffffffffff168152602001868152602001858152602001848152602001838103835289818151815260200191508051906020019080838360005b8381101561056c578082015181840152602081019050610551565b50505050905090810190601f1680156105995780820380516001836020036101000a031916815260200191505b50838103825288818151815260200191508051906020019060200280838360005b838110156105d55780820151818401526020810190506105ba565b505050509050019850505050505050505060405180910390f35b6060806000600260008581526020019081526020016000209050600081600201805490501415610687576040517f08c379a00000000000000000000000000000000000000000000000000000000081526004018080602001828103825260158152602001807f436972636c6520646f6573206e6f74206578697374000000000000000000000081525060200191505060405180910390fd5b6060816002018054905067ffffffffffffffff811180156106a757600080fd5b506040519080825280602002602001820160405280156106d65781602001602082028036833780820191505090505b50905060005b826002018054905081101561078b5782600701600084600201838154811061070057fe5b9060005260206000200160009054906101000a900473ffffffffffffffffffffffffffffffffffffffff1673ffffffffffffffffffffffffffffffffffffffff1673ffffffffffffffffffffffffffffffffffffffff1681526020019081526020016000205482828151811061077257fe5b60200260200101818152505080806001019150506106dc565b5081600201818180548060200260200160405190810160405280929190818152602001828054801561081257602002820191906000526020600020905b8160009054906101000a900473ffffffffffffffffffffffffffffffffffffffff1673ffffffffffffffffffffffffffffffffffffffff16815260200190600101908083116107c8575b50505050509150935093505050915091565b61082c611ad8565b73ffffffffffffffffffffffffffffffffffffffff16600160009054906101000a900473ffffffffffffffffffffffffffffffffffffffff1673ffffffffffffffffffffffffffffffffffffffff16146108ee576040517f08c379a00000000000000000000000000000000000000000000000000000000081526004018080602001828103825260208152602001807f4f776e61626c653a2063616c6c6572206973206e6f7420746865206f776e657281525060200191505060405180910390fd5b600073ffffffffffffffffffffffffffffffffffffffff16600160009054906101000a900473ffffffffffffffffffffffffffffffffffffffff1673ffffffffffffffffffffffffffffffffffffffff167f8be0079c531659141344cd1fd0a4f28419497f9722a3daafe3b4186f6b6457e060405160405180910390a36000600160006101000a81548173ffffffffffffffffffffffffffffffffffffffff021916908373ffffffffffffffffffffffffffffffffffffffff160217905550565b600080600260008481526020019081526020016000209050600081600201805490501415610a45576040517f08c379a00000000000000000000000000000000000000000000000000000000081526004018080602001828103825260158152602001807f436972636c6520646f6573206e6f74206578697374000000000000000000000081525060200191505060405180910390fd5b60005b8160020180549050811015610b05578160040154826007016000846002018481548110610a7157fe5b9060005260206000200160009054906101000a900473ffffffffffffffffffffffffffffffffffffffff1673ffffffffffffffffffffffffffffffffffffffff1673ffffffffffffffffffffffffffffffffffffffff16815260200190815260200160002054108015610ae8575080826003015414155b15610af857600092505050610b0c565b8080600101915050610a48565b5060019150505b919050565b600160159054906101000a900460ff1680610b305750610b2f611ae0565b5b80610b485750600160149054906101000a900460ff16155b610b9d576040517f08c379a000000000000000000000000000000000000000000000000000000000815260040180806020018281038252602e815260200180611f8c602e913960400191505060405180910390fd5b6000600160159054906101000a900460ff161590508015610bed5760018060156101000a81548160ff02191690831515021790555060018060146101000a81548160ff0219169083151502179055505b610bf633611732565b8015610c18576000600160156101000a81548160ff0219169083151502179055505b50565b6000600160009054906101000a900473ffffffffffffffffffffffffffffffffffffffff16905090565b6000600260008381526020019081526020016000209050600081600201805490501415610cda576040517f08c379a00000000000000000000000000000000000000000000000000000000081526004018080602001828103825260158152602001807f436972636c6520646f6573206e6f74206578697374000000000000000000000081525060200191505060405180910390fd5b610ce3826109af565b610d55576040517f08c379a000000000000000000000000000000000000000000000000000000000815260040180806020018281038252601a8152602001807f436972636c65206973206e6f7420776974686472617761626c6500000000000081525060200191505060405180910390fd5b3373ffffffffffffffffffffffffffffffffffffffff1681600201826003015481548110610d7f57fe5b9060005260206000200160009054906101000a900473ffffffffffffffffffffffffffffffffffffffff1673ffffffffffffffffffffffffffffffffffffffff1614610e33576040517f08c379a00000000000000000000000000000000000000000000000000000000081526004018080602001828103825260118152602001807f49742773206e6f74206f7572207475726e00000000000000000000000000000081525060200191505060405180910390fd5b8060050160009054906101000a900473ffffffffffffffffffffffffffffffffffffffff1673ffffffffffffffffffffffffffffffffffffffff1663a9059cbb33610ea5610e9260018660020180549050611af790919063ffffffff16565b8560040154611b4190919063ffffffff16565b6040518363ffffffff1660e01b8152600401808373ffffffffffffffffffffffffffffffffffffffff16815260200182815260200192505050602060405180830381600087803b158015610ef857600080fd5b505af1158015610f0c573d6000803e3d6000fd5b505050506040513d6020811015610f2257600080fd5b8101908080519060200190929190505050610fa5576040517f08c379a000000000000000000000000000000000000000000000000000000000815260040180806020018281038252601d8152602001807f5472616e73666572206f66207769746864726177616c206661696c656400000081525060200191505060405180910390fd5b60005b81600201805490508110156110df57808260030154146110d2576110538260040154836007016000856002018581548110610fdf57fe5b9060005260206000200160009054906101000a900473ffffffffffffffffffffffffffffffffffffffff1673ffffffffffffffffffffffffffffffffffffffff1673ffffffffffffffffffffffffffffffffffffffff16815260200190815260200160002054611af790919063ffffffff16565b82600701600084600201848154811061106857fe5b9060005260206000200160009054906101000a900473ffffffffffffffffffffffffffffffffffffffff1673ffffffffffffffffffffffffffffffffffffffff1673ffffffffffffffffffffffffffffffffffffffff168152602001908152602001600020819055505b8080600101915050610fa8565b50611111816002018054905061110360018460030154611bc790919063ffffffff16565b611c4f90919063ffffffff16565b81600301819055504281600601819055505050565b6060600360008373ffffffffffffffffffffffffffffffffffffffff1673ffffffffffffffffffffffffffffffffffffffff1681526020019081526020016000208054806020026020016040519081016040528092919081815260200182805480156111b157602002820191906000526020600020905b81548152602001906001019080831161119d575b50505050509050919050565b6000600260008481526020019081526020016000209050600081600201805490501415611252576040517f08c379a00000000000000000000000000000000000000000000000000000000081526004018080602001828103825260158152602001807f436972636c6520646f6573206e6f74206578697374000000000000000000000081525060200191505060405180910390fd5b8060050160009054906101000a900473ffffffffffffffffffffffffffffffffffffffff1673ffffffffffffffffffffffffffffffffffffffff166323b872dd3330856040518463ffffffff1660e01b8152600401808473ffffffffffffffffffffffffffffffffffffffff1681526020018373ffffffffffffffffffffffffffffffffffffffff1681526020018281526020019350505050602060405180830381600087803b15801561130557600080fd5b505af1158015611319573d6000803e3d6000fd5b505050506040513d602081101561132f57600080fd5b81019080805190602001909291905050506113b2576040517f08c379a000000000000000000000000000000000000000000000000000000000815260040180806020018281038252601f8152602001807f5472616e73666572206f6620636f6e747269627574696f6e206661696c65640081525060200191505060405180910390fd5b611406828260070160003373ffffffffffffffffffffffffffffffffffffffff1673ffffffffffffffffffffffffffffffffffffffff16815260200190815260200160002054611bc790919063ffffffff16565b8160070160003373ffffffffffffffffffffffffffffffffffffffff1673ffffffffffffffffffffffffffffffffffffffff16815260200190815260200160002081905550505050565b6060600260008381526020019081526020016000206002018054806020026020016040519081016040528092919081815260200182805480156114e857602002820191906000526020600020905b8160009054906101000a900473ffffffffffffffffffffffffffffffffffffffff1673ffffffffffffffffffffffffffffffffffffffff168152602001906001019080831161149e575b50505050509050919050565b60008686604051602001808383808284378083019250505092505050604051602081830303815290604052805190602001209050600061153382611450565b51146115a7576040517f08c379a00000000000000000000000000000000000000000000000000000000081526004018080602001828103825260148152602001807f416c726561647920616464656420636972636c6500000000000000000000000081525060200191505060405180910390fd5b6000600260008381526020019081526020016000209050338160000160006101000a81548173ffffffffffffffffffffffffffffffffffffffff021916908373ffffffffffffffffffffffffffffffffffffffff1602179055508585826002019190611614929190611e1a565b50838160050160006101000a81548173ffffffffffffffffffffffffffffffffffffffff021916908373ffffffffffffffffffffffffffffffffffffffff1602179055508281600401819055508787826001019190611674929190611eba565b5042816006018190555060005b86869050811015611727576003600088888481811061169c57fe5b9050602002013573ffffffffffffffffffffffffffffffffffffffff1673ffffffffffffffffffffffffffffffffffffffff1673ffffffffffffffffffffffffffffffffffffffff1681526020019081526020016000208390806001815401808255809150506001900390600052602060002001600090919091909150558080600101915050611681565b505050505050505050565b61173a611ad8565b73ffffffffffffffffffffffffffffffffffffffff16600160009054906101000a900473ffffffffffffffffffffffffffffffffffffffff1673ffffffffffffffffffffffffffffffffffffffff16146117fc576040517f08c379a00000000000000000000000000000000000000000000000000000000081526004018080602001828103825260208152602001807f4f776e61626c653a2063616c6c6572206973206e6f7420746865206f776e657281525060200191505060405180910390fd5b600073ffffffffffffffffffffffffffffffffffffffff168173ffffffffffffffffffffffffffffffffffffffff161415611882576040517f08c379a0000000000000000000000000000000000000000000000000000000008152600401808060200182810382526026815260200180611f666026913960400191505060405180910390fd5b8073ffffffffffffffffffffffffffffffffffffffff16600160009054906101000a900473ffffffffffffffffffffffffffffffffffffffff1673ffffffffffffffffffffffffffffffffffffffff167f8be0079c531659141344cd1fd0a4f28419497f9722a3daafe3b4186f6b6457e060405160405180910390a380600160006101000a81548173ffffffffffffffffffffffffffffffffffffffff021916908373ffffffffffffffffffffffffffffffffffffffff16021790555050565b606080600080600080600060026000898152602001908152602001600020905080600101816002018260050160009054906101000a900473ffffffffffffffffffffffffffffffffffffffff16836004015484600601548560030154858054600181600116156101000203166002900480601f016020809104026020016040519081016040528092919081815260200182805460018160011615610100020316600290048015611a335780601f10611a0857610100808354040283529160200191611a33565b820191906000526020600020905b815481529060010190602001808311611a1657829003601f168201915b5050505050955084805480602002602001604051908101604052809291908181526020018280548015611abb57602002820191906000526020600020905b8160009054906101000a900473ffffffffffffffffffffffffffffffffffffffff1673ffffffffffffffffffffffffffffffffffffffff1681526020019060010190808311611a71575b505050505094509650965096509650965096505091939550919395565b600033905090565b6000803090506000813b9050600081149250505090565b6000611b3983836040518060400160405280601e81526020017f536166654d6174683a207375627472616374696f6e206f766572666c6f770000815250611c99565b905092915050565b600080831415611b545760009050611bc1565b6000828402905082848281611b6557fe5b0414611bbc576040517f08c379a0000000000000000000000000000000000000000000000000000000008152600401808060200182810382526021815260200180611fba6021913960400191505060405180910390fd5b809150505b92915050565b600080828401905083811015611c45576040517f08c379a000000000000000000000000000000000000000000000000000000000815260040180806020018281038252601b8152602001807f536166654d6174683a206164646974696f6e206f766572666c6f77000000000081525060200191505060405180910390fd5b8091505092915050565b6000611c9183836040518060400160405280601881526020017f536166654d6174683a206d6f64756c6f206279207a65726f0000000000000000815250611d59565b905092915050565b6000838311158290611d46576040517f08c379a00000000000000000000000000000000000000000000000000000000081526004018080602001828103825283818151815260200191508051906020019080838360005b83811015611d0b578082015181840152602081019050611cf0565b50505050905090810190601f168015611d385780820380516001836020036101000a031916815260200191505b509250505060405180910390fd5b5060008385039050809150509392505050565b6000808314158290611e06576040517f08c379a00000000000000000000000000000000000000000000000000000000081526004018080602001828103825283818151815260200191508051906020019080838360005b83811015611dcb578082015181840152602081019050611db0565b50505050905090810190601f168015611df85780820380516001836020036101000a031916815260200191505b509250505060405180910390fd5b50828481611e1057fe5b0690509392505050565b828054828255906000526020600020908101928215611ea9579160200282015b82811115611ea857823573ffffffffffffffffffffffffffffffffffffffff168260006101000a81548173ffffffffffffffffffffffffffffffffffffffff021916908373ffffffffffffffffffffffffffffffffffffffff16021790555091602001919060010190611e3a565b5b509050611eb69190611f48565b5090565b828054600181600116156101000203166002900490600052602060002090601f016020900481019282611ef05760008555611f37565b82601f10611f0957803560ff1916838001178555611f37565b82800160010185558215611f37579182015b82811115611f36578235825591602001919060010190611f1b565b5b509050611f449190611f48565b5090565b5b80821115611f61576000816000905550600101611f49565b509056fe4f776e61626c653a206e6577206f776e657220697320746865207a65726f2061646472657373496e697469616c697a61626c653a20636f6e747261637420697320616c726561647920696e697469616c697a6564536166654d6174683a206d756c7469706c69636174696f6e206f766572666c6f77a264697066735822122093d000000c32cfab8ff1352c4318c1737702170d0110792fd56dbd7c3e64860d64736f6c63430007040033",
  "immutableReferences": {},
  "source": "// \"SPDX-License-Identifier: MIT\"\npragma solidity ^0.7.4;\n\nimport \"@openzeppelin/contracts/utils/ReentrancyGuard.sol\";\nimport \"@openzeppelin/contracts//math/SafeMath.sol\";\nimport \"@openzeppelin/contracts/access/Ownable.sol\";\nimport \"@openzeppelin/contracts/token/ERC20/IERC20.sol\";\nimport \"@openzeppelin/contracts/proxy/Initializable.sol\";\n\n// import \"./Initializable.sol\";\n// import \"./IERC20Token.sol\";\n\ncontract SavingsCircle is ReentrancyGuard, Ownable, Initializable{\n  using SafeMath for uint256;\n\n  struct Circle {\n    address owner;\n    string name;\n    address[] members;\n    uint256 currentIndex;\n    uint256 depositAmount;\n    address tokenAddress;\n    uint256 timestamp;\n    mapping(address => uint256) balances;\n  }\n  mapping (bytes32 => Circle) circles;\n  mapping (address => bytes32[]) circleMemberships;\n\n  function initialize() external initializer {\n    transferOwnership(msg.sender);\n  }\n\n  function circleMembers(bytes32 hashedName) public view returns (address[] memory) {\n    return circles[hashedName].members;\n  }\n\n  function circlesFor(address user) public view returns (bytes32[] memory) {\n    return circleMemberships[user];\n  }\n\n  function circleInfo(bytes32 hashedName) public view returns (string memory, address[] memory, address, uint256, uint256, uint256) {\n    Circle storage circle = circles[hashedName];\n    return (circle.name, circle.members, circle.tokenAddress, circle.depositAmount, circle.timestamp, circle.currentIndex);\n  }\n\n  function addCircle(string calldata name, address[] calldata members, address tokenAddress, uint256 depositAmount) external {\n    bytes32 hashedName = keccak256(abi.encodePacked(name));\n\n    require(circleMembers(hashedName).length == 0, \"Already added circle\");\n\n    Circle storage circle = circles[hashedName];\n\n    circle.owner = msg.sender;\n    circle.members = members;\n    circle.tokenAddress = tokenAddress;\n    circle.depositAmount = depositAmount;\n    circle.name = name;\n    // solhint-disable-next-line not-rely-on-time\n    circle.timestamp = block.timestamp;\n\n    for (uint256 index = 0; index < members.length; index++) {\n      circleMemberships[members[index]].push(hashedName);\n    }\n  }\n\n  function balancesForCircle(bytes32 hashedName) public view returns (address[] memory, uint256[] memory) {\n    Circle storage circle = circles[hashedName];\n\n    require(circle.members.length != 0, \"Circle does not exist\");\n\n    uint256[] memory balances = new uint256[](circle.members.length);\n\n    for (uint256 index = 0; index < circle.members.length; index++) {\n      balances[index] = circle.balances[circle.members[index]];\n    }\n\n    return (circle.members, balances);\n  }\n\n\n  function contribute(bytes32 hashedName, uint256 value) external{\n    Circle storage circle = circles[hashedName];\n\n    require(circle.members.length != 0, \"Circle does not exist\");\n\n    require(\n      IERC20(circle.tokenAddress).transferFrom(\n        msg.sender,\n        address(this),\n        value\n      ),\n      \"Transfer of contribution failed\"\n    );\n\n    circle.balances[msg.sender] = circle.balances[msg.sender].add(value);\n  }\n\n  function withdrawable(bytes32 hashedName) public view returns (bool) {\n    Circle storage circle = circles[hashedName];\n\n    require(circle.members.length != 0, \"Circle does not exist\");\n\n    for (uint256 index = 0; index < circle.members.length; index++) {\n      if (circle.balances[circle.members[index]] < circle.depositAmount && circle.currentIndex != index) {\n        return false;\n      }\n    }\n\n    return true;\n  }\n\n  function withdraw(bytes32 hashedName) external {\n    Circle storage circle = circles[hashedName];\n\n    require(circle.members.length != 0, \"Circle does not exist\");\n\n    require(withdrawable(hashedName), \"Circle is not withdrawable\");\n\n    require(circle.members[circle.currentIndex] == msg.sender, \"It's not our turn\");\n\n    require(\n      IERC20(circle.tokenAddress).transfer(\n        msg.sender,\n        circle.depositAmount.mul(circle.members.length.sub(1))\n      ),\n      \"Transfer of withdrawal failed\"\n    );\n\n    for (uint256 index = 0; index < circle.members.length; index++) {\n      if (circle.currentIndex != index) {\n        circle.balances[circle.members[index]] = circle.balances[circle.members[index]].sub(circle.depositAmount);\n      }\n    }\n\n    circle.currentIndex = circle.currentIndex.add(1).mod(circle.members.length);\n    // solhint-disable-next-line not-rely-on-time\n    circle.timestamp = block.timestamp;\n  }\n}\n",
  "sourcePath": "/Users/mac/Documents/Code/apps/solidity/defi/savingsacco/kotanipay/contracts/SavingSacco.sol",
  "compiler": {
    "name": "solc",
    "version": "0.7.4+commit.3f05b770.Emscripten.clang"
  },
  "schemaVersion": "3.3.2",
  "updatedAt": "2020-11-13T14:47:24.430Z",
  "devdoc": {
    "kind": "dev",
    "methods": {
      "owner()": {
        "details": "Returns the address of the current owner."
      },
      "renounceOwnership()": {
        "details": "Leaves the contract without owner. It will not be possible to call `onlyOwner` functions anymore. Can only be called by the current owner. NOTE: Renouncing ownership will leave the contract without an owner, thereby removing any functionality that is only available to the owner."
      },
      "transferOwnership(address)": {
        "details": "Transfers ownership of the contract to a new account (`newOwner`). Can only be called by the current owner."
      }
    },
    "version": 1
  },
  "userdoc": {
    "kind": "user",
    "methods": {},
    "version": 1
  }
}